{
  "_format": "hh-sol-artifact-1",
  "contractName": "ZenchainNFT",
  "sourceName": "contracts/ZenchainNFT.sol",
  "abi": [
    {
      "inputs": [
        {
          "internalType": "string",
          "name": "_name",
          "type": "string"
        },
        {
          "internalType": "string",
          "name": "_symbol",
          "type": "string"
        },
        {
          "internalType": "string",
          "name": "initBaseTokenURI",
          "type": "string"
        },
        {
          "internalType": "address",
          "name": "initialOwner",
          "type": "address"
        },
        {
          "internalType": "address",
          "name": "royaltyReceiver",
          "type": "address"
        },
        {
          "internalType": "uint96",
          "name": "royaltyFeeNumerator",
          "type": "uint96"
        }
      ],
      "stateMutability": "nonpayable",
      "type": "constructor"
    },
    {
      "inputs": [
        {
          "internalType": "uint256",
          "name": "numerator",
          "type": "uint256"
        },
        {
          "internalType": "uint256",
          "name": "denominator",
          "type": "uint256"
        }
      ],
      "name": "ERC2981InvalidDefaultRoyalty",
      "type": "error"
    },
    {
      "inputs": [
        {
          "internalType": "address",
          "name": "receiver",
          "type": "address"
        }
      ],
      "name": "ERC2981InvalidDefaultRoyaltyReceiver",
      "type": "error"
    },
    {
      "inputs": [
        {
          "internalType": "uint256",
          "name": "tokenId",
          "type": "uint256"
        },
        {
          "internalType": "uint256",
          "name": "numerator",
          "type": "uint256"
        },
        {
          "internalType": "uint256",
          "name": "denominator",
          "type": "uint256"
        }
      ],
      "name": "ERC2981InvalidTokenRoyalty",
      "type": "error"
    },
    {
      "inputs": [
        {
          "internalType": "uint256",
          "name": "tokenId",
          "type": "uint256"
        },
        {
          "internalType": "address",
          "name": "receiver",
          "type": "address"
        }
      ],
      "name": "ERC2981InvalidTokenRoyaltyReceiver",
      "type": "error"
    },
    {
      "inputs": [],
      "name": "ERC721EnumerableForbiddenBatchMint",
      "type": "error"
    },
    {
      "inputs": [
        {
          "internalType": "address",
          "name": "sender",
          "type": "address"
        },
        {
          "internalType": "uint256",
          "name": "tokenId",
          "type": "uint256"
        },
        {
          "internalType": "address",
          "name": "owner",
          "type": "address"
        }
      ],
      "name": "ERC721IncorrectOwner",
      "type": "error"
    },
    {
      "inputs": [
        {
          "internalType": "address",
          "name": "operator",
          "type": "address"
        },
        {
          "internalType": "uint256",
          "name": "tokenId",
          "type": "uint256"
        }
      ],
      "name": "ERC721InsufficientApproval",
      "type": "error"
    },
    {
      "inputs": [
        {
          "internalType": "address",
          "name": "approver",
          "type": "address"
        }
      ],
      "name": "ERC721InvalidApprover",
      "type": "error"
    },
    {
      "inputs": [
        {
          "internalType": "address",
          "name": "operator",
          "type": "address"
        }
      ],
      "name": "ERC721InvalidOperator",
      "type": "error"
    },
    {
      "inputs": [
        {
          "internalType": "address",
          "name": "owner",
          "type": "address"
        }
      ],
      "name": "ERC721InvalidOwner",
      "type": "error"
    },
    {
      "inputs": [
        {
          "internalType": "address",
          "name": "receiver",
          "type": "address"
        }
      ],
      "name": "ERC721InvalidReceiver",
      "type": "error"
    },
    {
      "inputs": [
        {
          "internalType": "address",
          "name": "sender",
          "type": "address"
        }
      ],
      "name": "ERC721InvalidSender",
      "type": "error"
    },
    {
      "inputs": [
        {
          "internalType": "uint256",
          "name": "tokenId",
          "type": "uint256"
        }
      ],
      "name": "ERC721NonexistentToken",
      "type": "error"
    },
    {
      "inputs": [
        {
          "internalType": "address",
          "name": "owner",
          "type": "address"
        },
        {
          "internalType": "uint256",
          "name": "index",
          "type": "uint256"
        }
      ],
      "name": "ERC721OutOfBoundsIndex",
      "type": "error"
    },
    {
      "inputs": [
        {
          "internalType": "address",
          "name": "owner",
          "type": "address"
        }
      ],
      "name": "OwnableInvalidOwner",
      "type": "error"
    },
    {
      "inputs": [
        {
          "internalType": "address",
          "name": "account",
          "type": "address"
        }
      ],
      "name": "OwnableUnauthorizedAccount",
      "type": "error"
    },
    {
      "anonymous": false,
      "inputs": [
        {
          "indexed": true,
          "internalType": "address",
          "name": "owner",
          "type": "address"
        },
        {
          "indexed": true,
          "internalType": "address",
          "name": "approved",
          "type": "address"
        },
        {
          "indexed": true,
          "internalType": "uint256",
          "name": "tokenId",
          "type": "uint256"
        }
      ],
      "name": "Approval",
      "type": "event"
    },
    {
      "anonymous": false,
      "inputs": [
        {
          "indexed": true,
          "internalType": "address",
          "name": "owner",
          "type": "address"
        },
        {
          "indexed": true,
          "internalType": "address",
          "name": "operator",
          "type": "address"
        },
        {
          "indexed": false,
          "internalType": "bool",
          "name": "approved",
          "type": "bool"
        }
      ],
      "name": "ApprovalForAll",
      "type": "event"
    },
    {
      "anonymous": false,
      "inputs": [
        {
          "indexed": true,
          "internalType": "address",
          "name": "previousOwner",
          "type": "address"
        },
        {
          "indexed": true,
          "internalType": "address",
          "name": "newOwner",
          "type": "address"
        }
      ],
      "name": "OwnershipTransferred",
      "type": "event"
    },
    {
      "anonymous": false,
      "inputs": [
        {
          "indexed": true,
          "internalType": "address",
          "name": "from",
          "type": "address"
        },
        {
          "indexed": true,
          "internalType": "address",
          "name": "to",
          "type": "address"
        },
        {
          "indexed": true,
          "internalType": "uint256",
          "name": "tokenId",
          "type": "uint256"
        }
      ],
      "name": "Transfer",
      "type": "event"
    },
    {
      "inputs": [
        {
          "internalType": "address",
          "name": "to",
          "type": "address"
        },
        {
          "internalType": "uint256",
          "name": "tokenId",
          "type": "uint256"
        }
      ],
      "name": "approve",
      "outputs": [],
      "stateMutability": "nonpayable",
      "type": "function"
    },
    {
      "inputs": [
        {
          "internalType": "address",
          "name": "owner",
          "type": "address"
        }
      ],
      "name": "balanceOf",
      "outputs": [
        {
          "internalType": "uint256",
          "name": "",
          "type": "uint256"
        }
      ],
      "stateMutability": "view",
      "type": "function"
    },
    {
      "inputs": [
        {
          "internalType": "uint256",
          "name": "tokenId",
          "type": "uint256"
        }
      ],
      "name": "burn",
      "outputs": [],
      "stateMutability": "nonpayable",
      "type": "function"
    },
    {
      "inputs": [
        {
          "internalType": "uint256",
          "name": "tokenId",
          "type": "uint256"
        }
      ],
      "name": "getApproved",
      "outputs": [
        {
          "internalType": "address",
          "name": "",
          "type": "address"
        }
      ],
      "stateMutability": "view",
      "type": "function"
    },
    {
      "inputs": [
        {
          "internalType": "address",
          "name": "owner",
          "type": "address"
        },
        {
          "internalType": "address",
          "name": "operator",
          "type": "address"
        }
      ],
      "name": "isApprovedForAll",
      "outputs": [
        {
          "internalType": "bool",
          "name": "",
          "type": "bool"
        }
      ],
      "stateMutability": "view",
      "type": "function"
    },
    {
      "inputs": [
        {
          "internalType": "address",
          "name": "to",
          "type": "address"
        }
      ],
      "name": "mint",
      "outputs": [],
      "stateMutability": "nonpayable",
      "type": "function"
    },
    {
      "inputs": [],
      "name": "name",
      "outputs": [
        {
          "internalType": "string",
          "name": "",
          "type": "string"
        }
      ],
      "stateMutability": "view",
      "type": "function"
    },
    {
      "inputs": [],
      "name": "nextTokenId",
      "outputs": [
        {
          "internalType": "uint256",
          "name": "",
          "type": "uint256"
        }
      ],
      "stateMutability": "view",
      "type": "function"
    },
    {
      "inputs": [],
      "name": "owner",
      "outputs": [
        {
          "internalType": "address",
          "name": "",
          "type": "address"
        }
      ],
      "stateMutability": "view",
      "type": "function"
    },
    {
      "inputs": [
        {
          "internalType": "uint256",
          "name": "tokenId",
          "type": "uint256"
        }
      ],
      "name": "ownerOf",
      "outputs": [
        {
          "internalType": "address",
          "name": "",
          "type": "address"
        }
      ],
      "stateMutability": "view",
      "type": "function"
    },
    {
      "inputs": [],
      "name": "renounceOwnership",
      "outputs": [],
      "stateMutability": "nonpayable",
      "type": "function"
    },
    {
      "inputs": [
        {
          "internalType": "uint256",
          "name": "tokenId",
          "type": "uint256"
        },
        {
          "internalType": "uint256",
          "name": "salePrice",
          "type": "uint256"
        }
      ],
      "name": "royaltyInfo",
      "outputs": [
        {
          "internalType": "address",
          "name": "receiver",
          "type": "address"
        },
        {
          "internalType": "uint256",
          "name": "amount",
          "type": "uint256"
        }
      ],
      "stateMutability": "view",
      "type": "function"
    },
    {
      "inputs": [
        {
          "internalType": "address",
          "name": "from",
          "type": "address"
        },
        {
          "internalType": "address",
          "name": "to",
          "type": "address"
        },
        {
          "internalType": "uint256",
          "name": "tokenId",
          "type": "uint256"
        }
      ],
      "name": "safeTransferFrom",
      "outputs": [],
      "stateMutability": "nonpayable",
      "type": "function"
    },
    {
      "inputs": [
        {
          "internalType": "address",
          "name": "from",
          "type": "address"
        },
        {
          "internalType": "address",
          "name": "to",
          "type": "address"
        },
        {
          "internalType": "uint256",
          "name": "tokenId",
          "type": "uint256"
        },
        {
          "internalType": "bytes",
          "name": "data",
          "type": "bytes"
        }
      ],
      "name": "safeTransferFrom",
      "outputs": [],
      "stateMutability": "nonpayable",
      "type": "function"
    },
    {
      "inputs": [
        {
          "internalType": "address",
          "name": "operator",
          "type": "address"
        },
        {
          "internalType": "bool",
          "name": "approved",
          "type": "bool"
        }
      ],
      "name": "setApprovalForAll",
      "outputs": [],
      "stateMutability": "nonpayable",
      "type": "function"
    },
    {
      "inputs": [
        {
          "internalType": "address",
          "name": "receiver",
          "type": "address"
        },
        {
          "internalType": "uint96",
          "name": "feeNumerator",
          "type": "uint96"
        }
      ],
      "name": "setRoyalties",
      "outputs": [],
      "stateMutability": "nonpayable",
      "type": "function"
    },
    {
      "inputs": [
        {
          "internalType": "bytes4",
          "name": "interfaceId",
          "type": "bytes4"
        }
      ],
      "name": "supportsInterface",
      "outputs": [
        {
          "internalType": "bool",
          "name": "",
          "type": "bool"
        }
      ],
      "stateMutability": "view",
      "type": "function"
    },
    {
      "inputs": [],
      "name": "symbol",
      "outputs": [
        {
          "internalType": "string",
          "name": "",
          "type": "string"
        }
      ],
      "stateMutability": "view",
      "type": "function"
    },
    {
      "inputs": [
        {
          "internalType": "uint256",
          "name": "index",
          "type": "uint256"
        }
      ],
      "name": "tokenByIndex",
      "outputs": [
        {
          "internalType": "uint256",
          "name": "",
          "type": "uint256"
        }
      ],
      "stateMutability": "view",
      "type": "function"
    },
    {
      "inputs": [
        {
          "internalType": "address",
          "name": "owner",
          "type": "address"
        },
        {
          "internalType": "uint256",
          "name": "index",
          "type": "uint256"
        }
      ],
      "name": "tokenOfOwnerByIndex",
      "outputs": [
        {
          "internalType": "uint256",
          "name": "",
          "type": "uint256"
        }
      ],
      "stateMutability": "view",
      "type": "function"
    },
    {
      "inputs": [
        {
          "internalType": "uint256",
          "name": "tokenId",
          "type": "uint256"
        }
      ],
      "name": "tokenURI",
      "outputs": [
        {
          "internalType": "string",
          "name": "",
          "type": "string"
        }
      ],
      "stateMutability": "view",
      "type": "function"
    },
    {
      "inputs": [],
      "name": "totalSupply",
      "outputs": [
        {
          "internalType": "uint256",
          "name": "",
          "type": "uint256"
        }
      ],
      "stateMutability": "view",
      "type": "function"
    },
    {
      "inputs": [
        {
          "internalType": "address",
          "name": "from",
          "type": "address"
        },
        {
          "internalType": "address",
          "name": "to",
          "type": "address"
        },
        {
          "internalType": "uint256",
          "name": "tokenId",
          "type": "uint256"
        }
      ],
      "name": "transferFrom",
      "outputs": [],
      "stateMutability": "nonpayable",
      "type": "function"
    },
    {
      "inputs": [
        {
          "internalType": "address",
          "name": "newOwner",
          "type": "address"
        }
      ],
      "name": "transferOwnership",
      "outputs": [],
      "stateMutability": "nonpayable",
      "type": "function"
    }
  ],
  "bytecode": "0x60806040523480156200001157600080fd5b5060405162003a0738038062003a078339818101604052810190620000379190620005d8565b82868681600090816200004b91906200091c565b5080600190816200005d91906200091c565b505050600073ffffffffffffffffffffffffffffffffffffffff168173ffffffffffffffffffffffffffffffffffffffff1603620000d55760006040517f1e4fbdf7000000000000000000000000000000000000000000000000000000008152600401620000cc919062000a14565b60405180910390fd5b620000e6816200011760201b60201c565b5083600e9081620000f891906200091c565b506200010b8282620001dd60201b60201c565b50505050505062000aa8565b6000600c60009054906101000a900473ffffffffffffffffffffffffffffffffffffffff16905081600c60006101000a81548173ffffffffffffffffffffffffffffffffffffffff021916908373ffffffffffffffffffffffffffffffffffffffff1602179055508173ffffffffffffffffffffffffffffffffffffffff168173ffffffffffffffffffffffffffffffffffffffff167f8be0079c531659141344cd1fd0a4f28419497f9722a3daafe3b4186f6b6457e060405160405180910390a35050565b6000620001ef6200038d60201b60201c565b6bffffffffffffffffffffffff16905080826bffffffffffffffffffffffff161115620002575781816040517f6f483d090000000000000000000000000000000000000000000000000000000081526004016200024e92919062000a7b565b60405180910390fd5b600073ffffffffffffffffffffffffffffffffffffffff168373ffffffffffffffffffffffffffffffffffffffff1603620002cc5760006040517fb6d9900a000000000000000000000000000000000000000000000000000000008152600401620002c3919062000a14565b60405180910390fd5b60405180604001604052808473ffffffffffffffffffffffffffffffffffffffff168152602001836bffffffffffffffffffffffff16815250600a60008201518160000160006101000a81548173ffffffffffffffffffffffffffffffffffffffff021916908373ffffffffffffffffffffffffffffffffffffffff16021790555060208201518160000160146101000a8154816bffffffffffffffffffffffff02191690836bffffffffffffffffffffffff160217905550905050505050565b6000612710905090565b6000604051905090565b600080fd5b600080fd5b600080fd5b600080fd5b6000601f19601f8301169050919050565b7f4e487b7100000000000000000000000000000000000000000000000000000000600052604160045260246000fd5b6200040082620003b5565b810181811067ffffffffffffffff82111715620004225762000421620003c6565b5b80604052505050565b60006200043762000397565b9050620004458282620003f5565b919050565b600067ffffffffffffffff821115620004685762000467620003c6565b5b6200047382620003b5565b9050602081019050919050565b60005b83811015620004a057808201518184015260208101905062000483565b60008484015250505050565b6000620004c3620004bd846200044a565b6200042b565b905082815260208101848484011115620004e257620004e1620003b0565b5b620004ef84828562000480565b509392505050565b600082601f8301126200050f576200050e620003ab565b5b815162000521848260208601620004ac565b91505092915050565b600073ffffffffffffffffffffffffffffffffffffffff82169050919050565b600062000557826200052a565b9050919050565b62000569816200054a565b81146200057557600080fd5b50565b60008151905062000589816200055e565b92915050565b60006bffffffffffffffffffffffff82169050919050565b620005b2816200058f565b8114620005be57600080fd5b50565b600081519050620005d281620005a7565b92915050565b60008060008060008060c08789031215620005f857620005f7620003a1565b5b600087015167ffffffffffffffff811115620006195762000618620003a6565b5b6200062789828a01620004f7565b965050602087015167ffffffffffffffff8111156200064b576200064a620003a6565b5b6200065989828a01620004f7565b955050604087015167ffffffffffffffff8111156200067d576200067c620003a6565b5b6200068b89828a01620004f7565b94505060606200069e89828a0162000578565b9350506080620006b189828a0162000578565b92505060a0620006c489828a01620005c1565b9150509295509295509295565b600081519050919050565b7f4e487b7100000000000000000000000000000000000000000000000000000000600052602260045260246000fd5b600060028204905060018216806200072457607f821691505b6020821081036200073a5762000739620006dc565b5b50919050565b60008190508160005260206000209050919050565b60006020601f8301049050919050565b600082821b905092915050565b600060088302620007a47fffffffffffffffffffffffffffffffffffffffffffffffffffffffffffffffff8262000765565b620007b0868362000765565b95508019841693508086168417925050509392505050565b6000819050919050565b6000819050919050565b6000620007fd620007f7620007f184620007c8565b620007d2565b620007c8565b9050919050565b6000819050919050565b6200081983620007dc565b62000831620008288262000804565b84845462000772565b825550505050565b600090565b6200084862000839565b620008558184846200080e565b505050565b5b818110156200087d57620008716000826200083e565b6001810190506200085b565b5050565b601f821115620008cc57620008968162000740565b620008a18462000755565b81016020851015620008b1578190505b620008c9620008c08562000755565b8301826200085a565b50505b505050565b600082821c905092915050565b6000620008f160001984600802620008d1565b1980831691505092915050565b60006200090c8383620008de565b9150826002028217905092915050565b6200092782620006d1565b67ffffffffffffffff811115620009435762000942620003c6565b5b6200094f82546200070b565b6200095c82828562000881565b600060209050601f8311600181146200099457600084156200097f578287015190505b6200098b8582620008fe565b865550620009fb565b601f198416620009a48662000740565b60005b82811015620009ce57848901518255600182019150602085019450602081019050620009a7565b86831015620009ee5784890151620009ea601f891682620008de565b8355505b6001600288020188555050505b505050505050565b62000a0e816200054a565b82525050565b600060208201905062000a2b600083018462000a03565b92915050565b600062000a5262000a4c62000a46846200058f565b620007d2565b620007c8565b9050919050565b62000a648162000a31565b82525050565b62000a7581620007c8565b82525050565b600060408201905062000a92600083018562000a59565b62000aa1602083018462000a6a565b9392505050565b612f4f8062000ab86000396000f3fe608060405234801561001057600080fd5b50600436106101585760003560e01c80636a627842116100c3578063a22cb4651161007c578063a22cb465146103da578063b88d4fde146103f6578063c21b471b14610412578063c87b56dd1461042e578063e985e9c51461045e578063f2fde38b1461048e57610158565b80636a6278421461032a57806370a0823114610346578063715018a61461037657806375794a3c146103805780638da5cb5b1461039e57806395d89b41146103bc57610158565b80632a55205a116101155780632a55205a146102315780632f745c591461026257806342842e0e1461029257806342966c68146102ae5780634f6ccce7146102ca5780636352211e146102fa57610158565b806301ffc9a71461015d57806306fdde031461018d578063081812fc146101ab578063095ea7b3146101db57806318160ddd146101f757806323b872dd14610215575b600080fd5b61017760048036038101906101729190612489565b6104aa565b60405161018491906124d1565b60405180910390f35b6101956104bc565b6040516101a2919061257c565b60405180910390f35b6101c560048036038101906101c091906125d4565b61054e565b6040516101d29190612642565b60405180910390f35b6101f560048036038101906101f09190612689565b61056a565b005b6101ff610580565b60405161020c91906126d8565b60405180910390f35b61022f600480360381019061022a91906126f3565b61058d565b005b61024b60048036038101906102469190612746565b61068f565b604051610259929190612786565b60405180910390f35b61027c60048036038101906102779190612689565b6107bf565b60405161028991906126d8565b60405180910390f35b6102ac60048036038101906102a791906126f3565b610868565b005b6102c860048036038101906102c391906125d4565b610888565b005b6102e460048036038101906102df91906125d4565b610961565b6040516102f191906126d8565b60405180910390f35b610314600480360381019061030f91906125d4565b6109d7565b6040516103219190612642565b60405180910390f35b610344600480360381019061033f91906127af565b6109e9565b005b610360600480360381019061035b91906127af565b610a18565b60405161036d91906126d8565b60405180910390f35b61037e610ad2565b005b610388610ae6565b60405161039591906126d8565b60405180910390f35b6103a6610aec565b6040516103b39190612642565b60405180910390f35b6103c4610b16565b6040516103d1919061257c565b60405180910390f35b6103f460048036038101906103ef9190612808565b610ba8565b005b610410600480360381019061040b919061297d565b610bbe565b005b61042c60048036038101906104279190612a44565b610be3565b005b610448600480360381019061044391906125d4565b610bf9565b604051610455919061257c565b60405180910390f35b61047860048036038101906104739190612a84565b610c62565b60405161048591906124d1565b60405180910390f35b6104a860048036038101906104a391906127af565b610cf6565b005b60006104b582610d7c565b9050919050565b6060600080546104cb90612af3565b80601f01602080910402602001604051908101604052809291908181526020018280546104f790612af3565b80156105445780601f1061051957610100808354040283529160200191610544565b820191906000526020600020905b81548152906001019060200180831161052757829003601f168201915b5050505050905090565b600061055982610df6565b5061056382610e7e565b9050919050565b61057c8282610577610ebb565b610ec3565b5050565b6000600880549050905090565b600073ffffffffffffffffffffffffffffffffffffffff168273ffffffffffffffffffffffffffffffffffffffff16036105ff5760006040517f64a0ae920000000000000000000000000000000000000000000000000000000081526004016105f69190612642565b60405180910390fd5b6000610613838361060e610ebb565b610ed5565b90508373ffffffffffffffffffffffffffffffffffffffff168173ffffffffffffffffffffffffffffffffffffffff1614610689578382826040517f64283d7b00000000000000000000000000000000000000000000000000000000815260040161068093929190612b24565b60405180910390fd5b50505050565b6000806000600b6000868152602001908152602001600020905060008160000160009054906101000a900473ffffffffffffffffffffffffffffffffffffffff16905060008260000160149054906101000a90046bffffffffffffffffffffffff169050600073ffffffffffffffffffffffffffffffffffffffff168273ffffffffffffffffffffffffffffffffffffffff160361077057600a60000160009054906101000a900473ffffffffffffffffffffffffffffffffffffffff169150600a60000160149054906101000a90046bffffffffffffffffffffffff1690505b600061077a610eeb565b6bffffffffffffffffffffffff16826bffffffffffffffffffffffff16886107a29190612b8a565b6107ac9190612bfb565b9050828195509550505050509250929050565b60006107ca83610a18565b821061080f5782826040517fa57d13dc000000000000000000000000000000000000000000000000000000008152600401610806929190612786565b60405180910390fd5b600660008473ffffffffffffffffffffffffffffffffffffffff1673ffffffffffffffffffffffffffffffffffffffff168152602001908152602001600020600083815260200190815260200160002054905092915050565b61088383838360405180602001604052806000815250610bbe565b505050565b3373ffffffffffffffffffffffffffffffffffffffff166108a8826109d7565b73ffffffffffffffffffffffffffffffffffffffff1614806108fd57503373ffffffffffffffffffffffffffffffffffffffff166108e58261054e565b73ffffffffffffffffffffffffffffffffffffffff16145b80610916575061091561090f826109d7565b33610c62565b5b610955576040517f08c379a000000000000000000000000000000000000000000000000000000000815260040161094c90612c78565b60405180910390fd5b61095e81610ef5565b50565b600061096b610580565b82106109b1576000826040517fa57d13dc0000000000000000000000000000000000000000000000000000000081526004016109a8929190612786565b60405180910390fd5b600882815481106109c5576109c4612c98565b5b90600052602060002001549050919050565b60006109e282610df6565b9050919050565b6109f1610f0c565b6109fd81600d54610f93565b600d6000815480929190610a1090612cc7565b919050555050565b60008073ffffffffffffffffffffffffffffffffffffffff168273ffffffffffffffffffffffffffffffffffffffff1603610a8b5760006040517f89c62b64000000000000000000000000000000000000000000000000000000008152600401610a829190612642565b60405180910390fd5b600360008373ffffffffffffffffffffffffffffffffffffffff1673ffffffffffffffffffffffffffffffffffffffff168152602001908152602001600020549050919050565b610ada610f0c565b610ae46000610fb1565b565b600d5481565b6000600c60009054906101000a900473ffffffffffffffffffffffffffffffffffffffff16905090565b606060018054610b2590612af3565b80601f0160208091040260200160405190810160405280929190818152602001828054610b5190612af3565b8015610b9e5780601f10610b7357610100808354040283529160200191610b9e565b820191906000526020600020905b815481529060010190602001808311610b8157829003601f168201915b5050505050905090565b610bba610bb3610ebb565b8383611077565b5050565b610bc984848461058d565b610bdd610bd4610ebb565b858585856111e6565b50505050565b610beb610f0c565b610bf58282611397565b5050565b6060610c0482610df6565b506000610c0f611539565b90506000815111610c2f5760405180602001604052806000815250610c5a565b80610c39846115cb565b604051602001610c4a929190612d4b565b6040516020818303038152906040525b915050919050565b6000600560008473ffffffffffffffffffffffffffffffffffffffff1673ffffffffffffffffffffffffffffffffffffffff16815260200190815260200160002060008373ffffffffffffffffffffffffffffffffffffffff1673ffffffffffffffffffffffffffffffffffffffff16815260200190815260200160002060009054906101000a900460ff16905092915050565b610cfe610f0c565b600073ffffffffffffffffffffffffffffffffffffffff168173ffffffffffffffffffffffffffffffffffffffff1603610d705760006040517f1e4fbdf7000000000000000000000000000000000000000000000000000000008152600401610d679190612642565b60405180910390fd5b610d7981610fb1565b50565b60007f2a55205a000000000000000000000000000000000000000000000000000000007bffffffffffffffffffffffffffffffffffffffffffffffffffffffff1916827bffffffffffffffffffffffffffffffffffffffffffffffffffffffff19161480610def5750610dee82611699565b5b9050919050565b600080610e0283611713565b9050600073ffffffffffffffffffffffffffffffffffffffff168173ffffffffffffffffffffffffffffffffffffffff1603610e7557826040517f7e273289000000000000000000000000000000000000000000000000000000008152600401610e6c91906126d8565b60405180910390fd5b80915050919050565b60006004600083815260200190815260200160002060009054906101000a900473ffffffffffffffffffffffffffffffffffffffff169050919050565b600033905090565b610ed08383836001611750565b505050565b6000610ee2848484611915565b90509392505050565b6000612710905090565b610f08600082610f03610ebb565b610ed5565b5050565b610f14610ebb565b73ffffffffffffffffffffffffffffffffffffffff16610f32610aec565b73ffffffffffffffffffffffffffffffffffffffff1614610f9157610f55610ebb565b6040517f118cdaa7000000000000000000000000000000000000000000000000000000008152600401610f889190612642565b60405180910390fd5b565b610fad828260405180602001604052806000815250611a32565b5050565b6000600c60009054906101000a900473ffffffffffffffffffffffffffffffffffffffff16905081600c60006101000a81548173ffffffffffffffffffffffffffffffffffffffff021916908373ffffffffffffffffffffffffffffffffffffffff1602179055508173ffffffffffffffffffffffffffffffffffffffff168173ffffffffffffffffffffffffffffffffffffffff167f8be0079c531659141344cd1fd0a4f28419497f9722a3daafe3b4186f6b6457e060405160405180910390a35050565b600073ffffffffffffffffffffffffffffffffffffffff168273ffffffffffffffffffffffffffffffffffffffff16036110e857816040517f5b08ba180000000000000000000000000000000000000000000000000000000081526004016110df9190612642565b60405180910390fd5b80600560008573ffffffffffffffffffffffffffffffffffffffff1673ffffffffffffffffffffffffffffffffffffffff16815260200190815260200160002060008473ffffffffffffffffffffffffffffffffffffffff1673ffffffffffffffffffffffffffffffffffffffff16815260200190815260200160002060006101000a81548160ff0219169083151502179055508173ffffffffffffffffffffffffffffffffffffffff168373ffffffffffffffffffffffffffffffffffffffff167f17307eab39ab6107e8899845ad3d59bd9653f200f220920489ca2b5937696c31836040516111d991906124d1565b60405180910390a3505050565b60008373ffffffffffffffffffffffffffffffffffffffff163b1115611390578273ffffffffffffffffffffffffffffffffffffffff1663150b7a02868685856040518563ffffffff1660e01b81526004016112459493929190612dc4565b6020604051808303816000875af192505050801561128157506040513d601f19601f8201168201806040525081019061127e9190612e25565b60015b611305573d80600081146112b1576040519150601f19603f3d011682016040523d82523d6000602084013e6112b6565b606091505b5060008151036112fd57836040517f64a0ae920000000000000000000000000000000000000000000000000000000081526004016112f49190612642565b60405180910390fd5b805160208201fd5b63150b7a0260e01b7bffffffffffffffffffffffffffffffffffffffffffffffffffffffff1916817bffffffffffffffffffffffffffffffffffffffffffffffffffffffff19161461138e57836040517f64a0ae920000000000000000000000000000000000000000000000000000000081526004016113859190612642565b60405180910390fd5b505b5050505050565b60006113a1610eeb565b6bffffffffffffffffffffffff16905080826bffffffffffffffffffffffff1611156114065781816040517f6f483d090000000000000000000000000000000000000000000000000000000081526004016113fd929190612e8d565b60405180910390fd5b600073ffffffffffffffffffffffffffffffffffffffff168373ffffffffffffffffffffffffffffffffffffffff16036114785760006040517fb6d9900a00000000000000000000000000000000000000000000000000000000815260040161146f9190612642565b60405180910390fd5b60405180604001604052808473ffffffffffffffffffffffffffffffffffffffff168152602001836bffffffffffffffffffffffff16815250600a60008201518160000160006101000a81548173ffffffffffffffffffffffffffffffffffffffff021916908373ffffffffffffffffffffffffffffffffffffffff16021790555060208201518160000160146101000a8154816bffffffffffffffffffffffff02191690836bffffffffffffffffffffffff160217905550905050505050565b6060600e805461154890612af3565b80601f016020809104026020016040519081016040528092919081815260200182805461157490612af3565b80156115c15780601f10611596576101008083540402835291602001916115c1565b820191906000526020600020905b8154815290600101906020018083116115a457829003601f168201915b5050505050905090565b6060600060016115da84611a56565b01905060008167ffffffffffffffff8111156115f9576115f8612852565b5b6040519080825280601f01601f19166020018201604052801561162b5781602001600182028036833780820191505090505b509050600082602083010190505b60011561168e578080600190039150507f3031323334353637383961626364656600000000000000000000000000000000600a86061a8153600a858161168257611681612bcc565b5b04945060008503611639575b819350505050919050565b60007f780e9d63000000000000000000000000000000000000000000000000000000007bffffffffffffffffffffffffffffffffffffffffffffffffffffffff1916827bffffffffffffffffffffffffffffffffffffffffffffffffffffffff1916148061170c575061170b82611ba9565b5b9050919050565b60006002600083815260200190815260200160002060009054906101000a900473ffffffffffffffffffffffffffffffffffffffff169050919050565b80806117895750600073ffffffffffffffffffffffffffffffffffffffff168273ffffffffffffffffffffffffffffffffffffffff1614155b156118bd57600061179984610df6565b9050600073ffffffffffffffffffffffffffffffffffffffff168373ffffffffffffffffffffffffffffffffffffffff161415801561180457508273ffffffffffffffffffffffffffffffffffffffff168173ffffffffffffffffffffffffffffffffffffffff1614155b801561181757506118158184610c62565b155b1561185957826040517fa9fbf51f0000000000000000000000000000000000000000000000000000000081526004016118509190612642565b60405180910390fd5b81156118bb57838573ffffffffffffffffffffffffffffffffffffffff168273ffffffffffffffffffffffffffffffffffffffff167f8c5be1e5ebec7d5bd14f71427d1e84f3dd0314c0f7b2291e5b200ac8c7c3b92560405160405180910390a45b505b836004600085815260200190815260200160002060006101000a81548173ffffffffffffffffffffffffffffffffffffffff021916908373ffffffffffffffffffffffffffffffffffffffff16021790555050505050565b600080611923858585611c8b565b9050600073ffffffffffffffffffffffffffffffffffffffff168173ffffffffffffffffffffffffffffffffffffffff16036119675761196284611ea5565b6119a6565b8473ffffffffffffffffffffffffffffffffffffffff168173ffffffffffffffffffffffffffffffffffffffff16146119a5576119a48185611eee565b5b5b600073ffffffffffffffffffffffffffffffffffffffff168573ffffffffffffffffffffffffffffffffffffffff16036119e8576119e384611fd9565b611a27565b8473ffffffffffffffffffffffffffffffffffffffff168173ffffffffffffffffffffffffffffffffffffffff1614611a2657611a2585856120aa565b5b5b809150509392505050565b611a3c8383612135565b611a51611a47610ebb565b60008585856111e6565b505050565b600080600090507a184f03e93ff9f4daa797ed6e38ed64bf6a1f0100000000000000008310611ab4577a184f03e93ff9f4daa797ed6e38ed64bf6a1f0100000000000000008381611aaa57611aa9612bcc565b5b0492506040810190505b6d04ee2d6d415b85acef81000000008310611af1576d04ee2d6d415b85acef81000000008381611ae757611ae6612bcc565b5b0492506020810190505b662386f26fc100008310611b2057662386f26fc100008381611b1657611b15612bcc565b5b0492506010810190505b6305f5e1008310611b49576305f5e1008381611b3f57611b3e612bcc565b5b0492506008810190505b6127108310611b6e576127108381611b6457611b63612bcc565b5b0492506004810190505b60648310611b915760648381611b8757611b86612bcc565b5b0492506002810190505b600a8310611ba0576001810190505b80915050919050565b60007f80ac58cd000000000000000000000000000000000000000000000000000000007bffffffffffffffffffffffffffffffffffffffffffffffffffffffff1916827bffffffffffffffffffffffffffffffffffffffffffffffffffffffff19161480611c7457507f5b5e139f000000000000000000000000000000000000000000000000000000007bffffffffffffffffffffffffffffffffffffffffffffffffffffffff1916827bffffffffffffffffffffffffffffffffffffffffffffffffffffffff1916145b80611c845750611c838261222e565b5b9050919050565b600080611c9784611713565b9050600073ffffffffffffffffffffffffffffffffffffffff168373ffffffffffffffffffffffffffffffffffffffff1614611cd957611cd8818486612298565b5b600073ffffffffffffffffffffffffffffffffffffffff168173ffffffffffffffffffffffffffffffffffffffff1614611d6a57611d1b600085600080611750565b6001600360008373ffffffffffffffffffffffffffffffffffffffff1673ffffffffffffffffffffffffffffffffffffffff168152602001908152602001600020600082825403925050819055505b600073ffffffffffffffffffffffffffffffffffffffff168573ffffffffffffffffffffffffffffffffffffffff1614611ded576001600360008773ffffffffffffffffffffffffffffffffffffffff1673ffffffffffffffffffffffffffffffffffffffff168152602001908152602001600020600082825401925050819055505b846002600086815260200190815260200160002060006101000a81548173ffffffffffffffffffffffffffffffffffffffff021916908373ffffffffffffffffffffffffffffffffffffffff160217905550838573ffffffffffffffffffffffffffffffffffffffff168273ffffffffffffffffffffffffffffffffffffffff167fddf252ad1be2c89b69c2b068fc378daa952ba7f163c4a11628f55a4df523b3ef60405160405180910390a4809150509392505050565b6008805490506009600083815260200190815260200160002081905550600881908060018154018082558091505060019003906000526020600020016000909190919091505550565b6000611ef983610a18565b90506000600760008481526020019081526020016000205490506000600660008673ffffffffffffffffffffffffffffffffffffffff1673ffffffffffffffffffffffffffffffffffffffff1681526020019081526020016000209050828214611fa55760008160008581526020019081526020016000205490508082600085815260200190815260200160002081905550826007600083815260200190815260200160002081905550505b6007600085815260200190815260200160002060009055806000848152602001908152602001600020600090555050505050565b60006001600880549050611fed9190612eb6565b905060006009600084815260200190815260200160002054905060006008838154811061201d5761201c612c98565b5b90600052602060002001549050806008838154811061203f5761203e612c98565b5b90600052602060002001819055508160096000838152602001908152602001600020819055506009600085815260200190815260200160002060009055600880548061208e5761208d612eea565b5b6001900381819060005260206000200160009055905550505050565b600060016120b784610a18565b6120c19190612eb6565b905081600660008573ffffffffffffffffffffffffffffffffffffffff1673ffffffffffffffffffffffffffffffffffffffff168152602001908152602001600020600083815260200190815260200160002081905550806007600084815260200190815260200160002081905550505050565b600073ffffffffffffffffffffffffffffffffffffffff168273ffffffffffffffffffffffffffffffffffffffff16036121a75760006040517f64a0ae9200000000000000000000000000000000000000000000000000000000815260040161219e9190612642565b60405180910390fd5b60006121b583836000610ed5565b9050600073ffffffffffffffffffffffffffffffffffffffff168173ffffffffffffffffffffffffffffffffffffffff16146122295760006040517f73c6ac6e0000000000000000000000000000000000000000000000000000000081526004016122209190612642565b60405180910390fd5b505050565b60007f01ffc9a7000000000000000000000000000000000000000000000000000000007bffffffffffffffffffffffffffffffffffffffffffffffffffffffff1916827bffffffffffffffffffffffffffffffffffffffffffffffffffffffff1916149050919050565b6122a383838361235c565b61235757600073ffffffffffffffffffffffffffffffffffffffff168373ffffffffffffffffffffffffffffffffffffffff160361231857806040517f7e27328900000000000000000000000000000000000000000000000000000000815260040161230f91906126d8565b60405180910390fd5b81816040517f177e802f00000000000000000000000000000000000000000000000000000000815260040161234e929190612786565b60405180910390fd5b505050565b60008073ffffffffffffffffffffffffffffffffffffffff168373ffffffffffffffffffffffffffffffffffffffff161415801561241457508273ffffffffffffffffffffffffffffffffffffffff168473ffffffffffffffffffffffffffffffffffffffff1614806123d557506123d48484610c62565b5b8061241357508273ffffffffffffffffffffffffffffffffffffffff166123fb83610e7e565b73ffffffffffffffffffffffffffffffffffffffff16145b5b90509392505050565b6000604051905090565b600080fd5b600080fd5b60007fffffffff0000000000000000000000000000000000000000000000000000000082169050919050565b61246681612431565b811461247157600080fd5b50565b6000813590506124838161245d565b92915050565b60006020828403121561249f5761249e612427565b5b60006124ad84828501612474565b91505092915050565b60008115159050919050565b6124cb816124b6565b82525050565b60006020820190506124e660008301846124c2565b92915050565b600081519050919050565b600082825260208201905092915050565b60005b8381101561252657808201518184015260208101905061250b565b60008484015250505050565b6000601f19601f8301169050919050565b600061254e826124ec565b61255881856124f7565b9350612568818560208601612508565b61257181612532565b840191505092915050565b600060208201905081810360008301526125968184612543565b905092915050565b6000819050919050565b6125b18161259e565b81146125bc57600080fd5b50565b6000813590506125ce816125a8565b92915050565b6000602082840312156125ea576125e9612427565b5b60006125f8848285016125bf565b91505092915050565b600073ffffffffffffffffffffffffffffffffffffffff82169050919050565b600061262c82612601565b9050919050565b61263c81612621565b82525050565b60006020820190506126576000830184612633565b92915050565b61266681612621565b811461267157600080fd5b50565b6000813590506126838161265d565b92915050565b600080604083850312156126a05761269f612427565b5b60006126ae85828601612674565b92505060206126bf858286016125bf565b9150509250929050565b6126d28161259e565b82525050565b60006020820190506126ed60008301846126c9565b92915050565b60008060006060848603121561270c5761270b612427565b5b600061271a86828701612674565b935050602061272b86828701612674565b925050604061273c868287016125bf565b9150509250925092565b6000806040838503121561275d5761275c612427565b5b600061276b858286016125bf565b925050602061277c858286016125bf565b9150509250929050565b600060408201905061279b6000830185612633565b6127a860208301846126c9565b9392505050565b6000602082840312156127c5576127c4612427565b5b60006127d384828501612674565b91505092915050565b6127e5816124b6565b81146127f057600080fd5b50565b600081359050612802816127dc565b92915050565b6000806040838503121561281f5761281e612427565b5b600061282d85828601612674565b925050602061283e858286016127f3565b9150509250929050565b600080fd5b600080fd5b7f4e487b7100000000000000000000000000000000000000000000000000000000600052604160045260246000fd5b61288a82612532565b810181811067ffffffffffffffff821117156128a9576128a8612852565b5b80604052505050565b60006128bc61241d565b90506128c88282612881565b919050565b600067ffffffffffffffff8211156128e8576128e7612852565b5b6128f182612532565b9050602081019050919050565b82818337600083830152505050565b600061292061291b846128cd565b6128b2565b90508281526020810184848401111561293c5761293b61284d565b5b6129478482856128fe565b509392505050565b600082601f83011261296457612963612848565b5b813561297484826020860161290d565b91505092915050565b6000806000806080858703121561299757612996612427565b5b60006129a587828801612674565b94505060206129b687828801612674565b93505060406129c7878288016125bf565b925050606085013567ffffffffffffffff8111156129e8576129e761242c565b5b6129f48782880161294f565b91505092959194509250565b60006bffffffffffffffffffffffff82169050919050565b612a2181612a00565b8114612a2c57600080fd5b50565b600081359050612a3e81612a18565b92915050565b60008060408385031215612a5b57612a5a612427565b5b6000612a6985828601612674565b9250506020612a7a85828601612a2f565b9150509250929050565b60008060408385031215612a9b57612a9a612427565b5b6000612aa985828601612674565b9250506020612aba85828601612674565b9150509250929050565b7f4e487b7100000000000000000000000000000000000000000000000000000000600052602260045260246000fd5b60006002820490506001821680612b0b57607f821691505b602082108103612b1e57612b1d612ac4565b5b50919050565b6000606082019050612b396000830186612633565b612b4660208301856126c9565b612b536040830184612633565b949350505050565b7f4e487b7100000000000000000000000000000000000000000000000000000000600052601160045260246000fd5b6000612b958261259e565b9150612ba08361259e565b9250828202612bae8161259e565b91508282048414831517612bc557612bc4612b5b565b5b5092915050565b7f4e487b7100000000000000000000000000000000000000000000000000000000600052601260045260246000fd5b6000612c068261259e565b9150612c118361259e565b925082612c2157612c20612bcc565b5b828204905092915050565b7f4e6f74206f776e6572206e6f7220617070726f76656400000000000000000000600082015250565b6000612c626016836124f7565b9150612c6d82612c2c565b602082019050919050565b60006020820190508181036000830152612c9181612c55565b9050919050565b7f4e487b7100000000000000000000000000000000000000000000000000000000600052603260045260246000fd5b6000612cd28261259e565b91507fffffffffffffffffffffffffffffffffffffffffffffffffffffffffffffffff8203612d0457612d03612b5b565b5b600182019050919050565b600081905092915050565b6000612d25826124ec565b612d2f8185612d0f565b9350612d3f818560208601612508565b80840191505092915050565b6000612d578285612d1a565b9150612d638284612d1a565b91508190509392505050565b600081519050919050565b600082825260208201905092915050565b6000612d9682612d6f565b612da08185612d7a565b9350612db0818560208601612508565b612db981612532565b840191505092915050565b6000608082019050612dd96000830187612633565b612de66020830186612633565b612df360408301856126c9565b8181036060830152612e058184612d8b565b905095945050505050565b600081519050612e1f8161245d565b92915050565b600060208284031215612e3b57612e3a612427565b5b6000612e4984828501612e10565b91505092915050565b6000819050919050565b6000612e77612e72612e6d84612a00565b612e52565b61259e565b9050919050565b612e8781612e5c565b82525050565b6000604082019050612ea26000830185612e7e565b612eaf60208301846126c9565b9392505050565b6000612ec18261259e565b9150612ecc8361259e565b9250828203905081811115612ee457612ee3612b5b565b5b92915050565b7f4e487b7100000000000000000000000000000000000000000000000000000000600052603160045260246000fdfea2646970667358221220f8157cc6ad27e0f6356169b7bbf32456f08dfc07d6e298d4bdef69e76470e61164736f6c63430008140033",
  "linkReferences": {},
  "deployedLinkReferences": {}
}